:020000040800F2
:1000000000800020151A0008A1170008A317000897
:10001000A5170008A7170008A9170008000000008E
:10002000000000000000000000000000AB17000806
:10003000AD17000800000000AF170008B117000856
:10004000651A0008651A0008651A0008651A000894
:10005000651A0008651A0008BD170008C7170008D0
:10006000651A0008651A0008D1170008651A00080B
:10007000651A0008651A0008651A0008651A000864
:10008000651A0008651A0008651A000800000000DB
:10009000000000000000000000000000DB17000866
:1000A000651A0008651A0008651A0008651A000834
:1000B000000000000000000000000000651A0008B9
:1000C000651A0008651A0008651A0008E517000897
:1000D0001D18000821180008651A0008000000001B
:1000E000651A0008651A0008000000000000000002
:1000F000000000000000000000000000651A000879
:100100000000000000000000651A00080000000068
:100110000000000000000000651A00080000000058
:10012000651A0008651A0008651A0008651A0008B3
:10013000651A000800000000000000000000000038
:1001400000000000000000000000000000000000AF
:10015000651A0008651A0008651A0008651A000883
:10016000000000000000000000000000000000008F
:10017000000000000000000000000000000000007F
:10018000651A0008651A0008000000000000000061
:1001900000000000651A00080000000000000000D8
:1001A000000000000000000000000000000000004F
:1001B000000000000000000000000000651A0008B8
:0801C000651A0008651A000829
:1001C80010B5054C237833B9044B13B10448AFF389
:1001D80000800123237010BD1000002000000000E3
:1001E800B01A000808B5034B1BB103490348AFF325
:1001F800008008BD0000000014000020B01A0008AC
:1002080053B94AB9002908BF00281CBF4FF0FF3175
:100218004FF0FF3000F072B9ADF1080C6DE904CE73
:1002280000F006F8DDF804E0DDE9022304B07047C9
:100238002DE9F047089E04468846002B4BD18A4298
:10024800154667D9B2FA82F24AB1C2F1200701FA1B
:1002580002F320FA07F7954047EA030894404FEA6B
:10026800154E230CB8FBFEF71FFA85FC0EFB17880A
:1002780043EA084307FB0CF1994209D9EB1807F147
:10028800FF3080F01B81994240F21881023F2B44D5
:100298005B1AA4B2B3FBFEF00EFB103344EA03442E
:1002A80000FB0CFCA44509D92C1900F1FF3380F0A0
:1002B8000781A44540F2048102382C4440EA0740F3
:1002C800A4EB0C0400271EB1D4400023C6E9004368
:1002D8003946BDE8F0878B4209D9002E00F0EB8043
:1002E8000027C6E9000138463946BDE8F087B3FA69
:1002F80083F7002F47D18B4202D3824200F2FA8063
:10030800841A61EB030301209846002EE0D0C6E969
:100318000048DDE702B9FFDEB2FA82F2002A40F0B7
:100328008F80491B4FEA154E1FFA85F80127B1FB4C
:10033800FEFC230C0EFB1C1143EA014308FB0CF1E5
:10034800994207D9EB180CF1FF3002D2994200F21A
:10035800CD808446591AA3B2B1FBFEF00EFB1014EF
:1003680043EA044408FB00F8A04507D92C1900F11A
:10037800FF3302D2A04500F2B6801846A4EB080469
:1003880040EA0C409FE7C7F1200CBB4022FA0CFE64
:100398004EEA030E01FA07F420FA0CF521FA0CF3E1
:1003A8004FEA1E482543B3FBF8F92C0C08FB193318
:1003B8001FFA8EFA44EA034309FB0AF49C4202FA44
:1003C80007F200FA07F10BD91EEB030309F1FF301E
:1003D80080F087809C4240F28480A9F1020973442E
:1003E8001B1BADB2B3FBF8F008FB103345EA03441E
:1003F80000FB0AFAA24508D91EEB040400F1FF33FA
:100408006BD2A24569D90238744440EA0940A0FB7E
:100418000289A4EB0A044C45C2464B4654D351D03A
:10042800002E69D0B1EB0A0564EB030404FA0CFC56
:10043800FD40FC404CEA0505C6E90054002747E7A3
:10044800C2F1200320FA03F7954001FA02F021FADD
:1004580003F34FEA154E3843010CB3FBFEF71FFABE
:1004680085F80EFB173341EA034107FB08F38B427B
:1004780004FA02F407D9691807F1FF3C2FD28B421E
:100488002DD9023F2944CB1A81B2B3FBFEF00EFBF3
:10049800103341EA034100FB08F38B4207D969187E
:1004A80000F1FF3C17D28B4215D902382944C91AEA
:1004B80040EA07473BE73746304609E70746E7E69D
:1004C8001846FBE64145ABD2B8EB020A69EB0E02CF
:1004D80001381346A4E76046E9E7184695E76746FA
:1004E800D1E781467CE702382C4447E7ACF1020C9F
:1004F8002B442FE7384608E73746E9E6704700BF40
:1005080010B504460E4B18784FF47A73B3FBF0F32A
:100518000C4A1068B0FBF3F000F088F868B90F2CAB
:1005280001D901200AE0002221464FF0FF3000F0F7
:1005380049F8034B5C60002000E0012010BD00BFBB
:10054800000000200C00002008B50B4B1A6842F48C
:1005580000721A601A6842F480621A601A6842F4DB
:1005680080721A60032000F01BF80020FFF7C8FF14
:1005780001F0C8F8002008BD003C0240034A116899
:10058800034B1B780B441360704700BF7C000020AE
:1005980000000020014B1868704700BF7C00002055
:1005A800074AD36823F4E0631B041B0C000200F421
:1005B800E060184340F0BF6040F40030D0607047FE
:1005C80000ED00E030B4174BDB68C3F30223C3F13E
:1005D8000704042C28BF04241D1D062D18D9033B2D
:1005E8004FF0FF3505FA04F421EA0401994005FAB1
:1005F80003F322EA0303194300280BDB0901C9B2FC
:1006080000F1604000F5614080F8001330BC70478D
:100618000023E5E700F00F000901C9B2024B1954A5
:10062800F4E700BF00ED00E014ED00E00138B0F1A0
:10063800807F0AD2064B5860064AF02182F82310C0
:100648000020986007221A6070470120704700BF99
:1006580010E000E000ED00E0042805D0054A13682A
:1006680023F0040313607047024A136843F004033D
:100678001360704710E000E0704708B5FFF7FCFF13
:1006880008BD90F83530DBB2022B03D080234365D8
:1006980001207047052380F835300268136823F07D
:1006A800010313600020704700230F2B00F2BA806B
:1006B800F0B482B074E0846806EA040CCC68BC40EC
:1006C80044EA0C048460446824EA02024C68C4F3D7
:1006D80000149C4014434460C26816408A68BA40BB
:1006E8003243C2604A6812F0805F56D000220192FD
:1006F8004D4A546C44F480445464526C02F4804271
:100708000192019A9C08A61C484A52F8267003F0E8
:10071800030296000F22B24027EA0207444A904299
:1007280079D002F58062904277D002F580629042DB
:100738006FD00722B2403A4302343C4E46F8242098
:100748003C4A1468EA4302EA04064F6817F4803FFB
:1007580001D045EA0406374C2660646802EA0406BC
:100768004F6817F4003F01D045EA0406314C666033
:10077800A46802EA04064F6817F4801F01D045EA0E
:1007880004062C4CA660E46822404E6816F4001F4C
:1007980001D045EA0402274CE26001330F2B3ED812
:1007A80001229A400C6804EA0205AA42F5D14C6875
:1007B800022C01D0122C10D1DE08083650F826C0C1
:1007C80003F00704A7000F24BC402CEA040C0C69B2
:1007D800BC4044EA0C0440F8264004685F00032645
:1007E800BE40F64306EA040C4C6804F00304BC401F
:1007F80044EA0C0404604C6804F1FF3CBCF1010FAE
:100808007FF659AF112C3FF456AF122C7FF464AF2A
:1008180051E702228EE700228CE701228AE702B024
:10082800F0BC7047704700BF0038024000380140F4
:1008380000000240003C01400369194201D1002038
:1008480070470120704712B90904816170478161BE
:100858007047704708B5054B5B69034200D108BD76
:10086800024B5861FFF7F5FFF9E700BF003C014074
:10087800264B9B6803F00C03042B44D0082B01D0B3
:10088800234870472DE9F04B204B5A6802F03F028D
:100898005B6813F4800F13D01C4B5968C1F388119F
:1008A80000231C48A1FB0001FFF7AAFC174B5B685B
:1008B800C3F3014301335B00B0FBF3F0BDE8F08BF9
:1008C800124B5B68C3F388131E4600275C010025A2
:1008D800E41A65EB0705A90141EA9461A001001B30
:1008E80061EB0501CB0043EA5073C400A01943EB48
:1008F80007018B0243EA90538402204619460023DD
:10090800FFF77EFCD2E70348704700BF003802407B
:100918000024F40040787D01002800F09D8070B527
:1009280004464F4B1B6803F00F038B4209D2CBB22E
:100938004B4A1370136803F00F038B4201D0012058
:1009480070BD236813F0020F17D013F0040F04D002
:10095800444A936843F4E0539360236813F0080F04
:1009680004D0404A936843F4604393603D4A9368D7
:1009780023F0F003A068034393600D46236813F047
:10098800010F32D06368012B21D09A1E012A25D984
:10099800344A126812F0020F60D032498A6822F095
:1009A800030213438B60FFF7F5FD06462D4B9B684A
:1009B80003F00C036268B3EB820F16D0FFF7EAFD71
:1009C800801B41F288339842F0D90320B8E7254AC2
:1009D800126812F4003FE0D10120B1E7214A126801
:1009E80012F0007FD9D10120AAE71D4B1B6803F044
:1009F8000F03AB4209D9EAB2194B1A701B6803F00E
:100A08000F03AB4201D001209AE7236813F0040FCB
:100A180006D0144A936823F4E053E1680B439360CB
:100A2800236813F0080F07D00E4A936823F4604335
:100A3800216943EAC1039360FFF71AFF094B9B68DA
:100A4800C3F30313084AD35CD840084B186000204E
:100A5800FFF756FD002073E70120704701206FE77C
:100A6800003C024000380240C81A00080C00002070
:100A7800014B1868704700BF0C00002070B582B0A9
:100A88000446036813F0010F3BD0A74B9B6803F0A3
:100A98000C03042B2CD0A44B9B6803F00C03082BED
:100AA80021D06368B3F5803F4FD0B3F5A02F52D063
:100AB8009D4B1A6822F480321A601A6822F4802248
:100AC8001A606368002B50D0FFF764FD0546964B0B
:100AD8001B6813F4003F14D1FFF75CFD401B64282A
:100AE800F5D903208AE1904B5B6813F4800FD8D0C6
:100AF8008D4B1B6813F4003F03D06368002B00F094
:100B08007A81236813F0020F55D0874B9B6813F046
:100B18000C0F3ED0844B9B6803F00C03082B33D09A
:100B2800E368002B68D0814B01221A60FFF732FD81
:100B380005467D4B1B6813F0020F54D1FFF72AFDC1
:100B4800401B0228F5D9032058E1774A136843F47B
:100B580080331360B5E7744B1A6842F480221A6038
:100B68001A6842F480321A60ABE7FFF713FD0546B6
:100B78006D4B1B6813F4003FC3D0FFF70BFD401B00
:100B88006428F5D9032039E1674B5B6813F4800FBB
:100B9800C6D1654B1B6813F0020F04D0E368012B24
:100BA80001D001202AE1604A136823F0F803216983
:100BB80043EAC1031360236813F0080F40D0636948
:100BC80063B35B4B01221A60FFF7E4FC0546564B02
:100BD8005B6F13F0020F33D1FFF7DCFC401B0228D8
:100BE800F5D903200AE1504A136823F0F803216974
:100BF80043EAC1031360DEE74C4B00221A60FFF79B
:100C0800C9FC0546484B1B6813F0020FD3D0FFF709
:100C1800C1FC401B0228F5D90320EFE0444B002219
:100C28001A60FFF7B7FC05463F4B5B6F13F0020FE6
:100C380006D0FFF7AFFC401B0228F5D90320DDE002
:100C4800236813F0040F78D0374B1B6C13F0805FC8
:100C580033D100230193344B1A6C42F080521A644A
:100C68001B6C03F080530193019B0125314B1B68DA
:100C780013F4807F23D0A368012B34D0052B38D000
:100C8800294B1A6F22F001021A671A6F22F0040228
:100C98001A67A368002B36D0FFF77CFC0646224B68
:100CA8001B6F13F0020F47D1FFF774FC801B41F252
:100CB80088339842F3D90320A0E00025D6E71D4ADF
:100CC800136843F480731360FFF764FC0646194BFE
:100CD8001B6813F4807FCED1FFF75CFC801B0228D1
:100CE800F5D903208AE0104A136F43F00103136714
:100CF800CFE70D4B1A6F42F004021A671A6F42F0E1
:100D080001021A67C5E7FFF745FC0646064B1B6F4D
:100D180013F0020F10D0FFF73DFC801B41F288331F
:100D28009842F3D9032069E00038024000004742A6
:100D3800800E474200700040E5B9A369002B5CD0E3
:100D4800304A926802F00C02082A59D0022B17D0B8
:100D58002D4B00221A60FFF71DFC0446294B1B6827
:100D680013F0007F45D0FFF715FC001B0228F5D9CA
:100D7800032043E0234A136C23F080531364DCE719
:100D8800214B00221A60FFF705FC05461D4B1B6826
:100D980013F0007F06D0FFF7FDFB401B0228F5D9B2
:100DA80003202BE0E369226A1343626A43EA821351
:100DB800A26A5208013A43EA0243E26A43EA02633A
:100DC800226B43EA02730F4A53600F4B01221A60E9
:100DD800FFF7E0FB04460B4B1B6813F0007F06D1BE
:100DE800FFF7D8FB001B0228F5D9032006E00020F6
:100DF80004E0002002E0012000E0002002B070BD05
:100E08000120FBE700380240600047420268D368CF
:100E180023F49073D3600268536923F0010353618C
:100E2800202380F83A30704790F83930DBB2212B14
:100E38002AD18368B3F5805F16D0036A5A1C026210
:100E48001A7803685A60C38C013B9BB2C384EBB920
:100E58000268D36823F08003D3600268D36843F044
:100E68004003D36000207047036A1B880268C3F3FD
:100E78000803536003691BB9036A02330362E2E79C
:100E8800036A01330362DEE70220704700207047DF
:100E980090F83A30DBB2202B1BD1E1B1EAB190F8DF
:100EA8003830012B1BD081628285C2850023C36341
:100EB800222280F83A2080F8383001684A6942F0E6
:100EC80001024A610168CA6842F49072CA60184611
:100ED80070470220704701207047012070470220A8
:100EE8007047704708B50168CB6823F04003CB60B2
:100EF800202380F83930FFF7F4FF002008BD08B53B
:100F080090F83A30DBB2222B40D18368B3F5805F8A
:100F18000ED0036903BB03685A68836A591C81624F
:100F28001A70C38D013B9BB2C385F3B100202EE03C
:100F3800826A036943B903685B68C3F308031380D3
:100F4800836A02338362ECE703685B68DBB2138071
:100F5800836A01338362E4E703685B68826A511C31
:100F6800816203F07F031370DBE70268D36823F420
:100F78009073D3600268536923F0010353612023FF
:100F880080F83A3000F014FA002000E0022008BD92
:100F98007047000010B5044602681368D1685269AA
:100FA80013F00F0005D113F0200F02D011F0200F1D
:100FB80053D1002867D012F0010202D111F4907FBA
:100FC80061D013F0010F06D011F4807F03D0E06BDD
:100FD80040F00100E06313F0040F04D01AB1E06B95
:100FE80040F00200E06313F0020F04D01AB1E06B86
:100FF80040F00400E06313F0080F04D01AB1E26B6C
:1010080042F00802E263E26B002A48D013F0200F96
:1010180002D011F0200F24D123685B6903F040034C
:10102800E26B12F0080F00D13BB32046FFF7EEFE4B
:1010380023685A6912F0400F1BD05A6922F0400207
:101048005A61636B8BB11A4A1A65606BFFF719FB1B
:1010580028B3606B036D984721E02046FFF74FFFE8
:101068001DE02046FFF74BFFD6E72046FFF790FF2D
:1010780015E02046FFF78CFF11E02046FFF788FFB8
:101088000023E3630BE013F0800F02D011F0800F10
:1010980006D113F0400F02D011F0400F04D110BD5B
:1010A8002046FFF7C1FEFAE72046FFF71BFFF6E7E9
:1010B800BD10000808B5806B0023C385C384FFF703
:1010C80067FF08BDF0B40A6892FAA2F2B2FA82F297
:1010D80018E00E69C46893FAA3F5B5FA85F56D00B2
:1010E800032707FA05F524EA050493FAA3F5B5FAE8
:1010F80085F56D0006FA05F52C43C4604C68022C92
:1011080036D001320B6833FA02F464D001249440DB
:101118002340F6D04E68046893FAA3F5B5FA85F52E
:101128006D00032707FA05F524EA050493FAA3F5E9
:10113800B5FA85F56D0006FA05F52C4304604C6890
:10114800013C012CC5D88E68846893FAA3F5B5FADA
:1011580085F56D0007FA05F524EA050493FAA3F569
:10116800B5FA85F56D0006FA05F52C438460B0E7FD
:1011780093FAA3F4B4FA84F4072C15D84D69046AD9
:1011880093FAA3F6B6FA86F6B6000F2707FA06F61C
:1011980024EA060493FAA3F3B3FA83F39B0005FA4F
:1011A80003F323430362ACE74C69456A1B0A93FACD
:1011B800A3F6B6FA86F6B6000F2707FA06F625EA6A
:1011C800060593FAA3F3B3FA83F39B0004FA03F337
:1011D8002B43436295E74A68013A012A02D9012064
:1011E800F0BC7047C968426822EA030201FB03F3B6
:1011F80013434360F3E70246036813F0400F2ED110
:1012080010B4006820F47F4020F0BF000B684C68E1
:1012180023438C682343CC6823430C6923434C69DC
:1012280023438C692343CC6923430C6A2343034338
:101238001360536823F00403C88A034353600B6A9E
:10124800B3F5005F07D00120D36923F40063D361AD
:101258005DF8044B70478B8C13610120F4E7002084
:10126800D36923F40063D36170470000074A002361
:10127800137082F8413005E0044A1A440021517085
:101288000133DBB23F2BF7D9704700BF2C00002099
:10129800044B93F84220511C83F8421013445870B1
:1012A800704700BF2C000020014B1870704700BF2A
:1012B8002C000020014B83F8410070472C000020CF
:1012C800024B002283F84220704700BF2C00002008
:1012D800014B83F8430070472C000020014B93F822
:1012E800430070472C00002008B5FFF7BFFFFFF749
:1012F800E7FF0020FFF7ECFF08BD000000231946B8
:1013080005E0064A1A44527811440133DBB23F2BF8
:10131800F7D9C9B2C843C0B2704700BF2C0000203B
:1013280038B50446214B93F844302BB1012B0DD02E
:10133800FFF7DAFF002008E01C4D85F84500FFF7AD
:10134800B3FF012385F84430002038BD174B93F8CC
:10135800462093F845309A4203D39A420BD0002096
:10136800F3E7FFF795FF114A92F84630013382F808
:1013780046300020E9E7FFF7C1FFA0420AD0FFF797
:10138800B3FF0020094B83F84400084B002283F880
:101398004620DAE7054B002283F844202046FFF771
:1013A80089FF0120FFF794FF0120EEE72C000020C1
:1013B80008B50268084B9A4200D008BDFFF78EFFB7
:1013C80028B1012205490648FFF762FDF5E7034BFE
:1013D8001878FFF7A5FFF4E700100140730000201C
:1013E800800000202DE9F0438BB000240194474B86
:1013F8001A6B42F004021A631A6B02F0040201929B
:10140800019A02941A6B42F080021A631A6B02F076
:1014180080020292029A03941A6B42F001021A6344
:101428001A6B02F001020392039A04941A6B42F0B9
:1014380002021A631B6B03F002030493049B344DEE
:1014480001224FF4C0412846FFF7FDF922464FF428
:10145800C0512846FFF7F7F9DFF8B88022464FF465
:1014680000614046FFF7EFF94FF4C04305930126AA
:1014780006960796089405A92846FFF715F9042348
:1014880005930694079405A94046FFF70DF94FF414
:10149800007305930694079605A92846FFF704F9F3
:1014A8004FF48073059306940794DFF86C9005A9B0
:1014B8004846FFF7F9F84FF40043059306940227CE
:1014C800079705A94846FFF7EFF84FF4806305939F
:1014D8000694079705A92846FFF7E6F84FF4C05386
:1014E800059306960797089405A92846FFF7DCF8A0
:1014F8004FF40063059306960797089405A940469C
:10150800FFF7D2F80BB0BDE8F08300BF0038024007
:10151800000802400004024000000240FEE700000C
:1015280000B595B0002100912A4B1A6C42F0805208
:101538001A641B6C03F080530093009B0191264BA7
:101548001A6842F440421A601B6803F4404301934E
:10155800019B012307934FF48033089302230D93D3
:101568004FF480020E9204220F926421109111937D
:101578001292139307A8FFF781FA10BB0F23029367
:1015880002230393002304934FF480530593069397
:10159800032102A8FFF7C0F9B8B9FFF769FA0F4BA2
:1015A800A3FB00308009FFF741F80420FFF754F847
:1015B800002211464FF0FF30FFF704F815B05DF830
:1015C80004FB48210648FFF7A9FF56210448FFF706
:1015D800A5FF00BF0038024000700040D34D6210E4
:1015E800E01A000808B5FEF7AFFFFFF799FFFFF70D
:1015F800F9FE00F097F900F08BF900F0EFF900F030
:1016080071F900F08DF9374B01221A700DE000F0E6
:101618003FF900F05BF9334B01221A70324B1A780C
:10162800324BDA60324B00221A7010213148FFF732
:1016380003F90128EBD000F04FF90028F5D02C4B26
:101648001B78032BF1D8DFE803F002223B49254B36
:101658001B78022B0BD0032B11D0012BE5D1264B85
:101668001A78224BDA60224B01221A70DDE7234BED
:101678001A781E4BDA601E4B01221A70D5E7204BF0
:101688001A781A4BDA601A4B01221A70CDE7174BF9
:101698009B6813F0020F07D0154B00221A70114AED
:1016A800137801331370C0E700F004F90428BCD0A4
:1016B8000C4B1B78012BB8D90D4B02221A70B4E7DA
:1016C80000F0F8F8012805D00328AED1074B032213
:1016D800DA60AAE7054B1022DA60A6E7034B9B689D
:1016E800A3E700BF08000020CC0000200030014024
:1016F800C900002000000240C0000020C8000020EF
:10170800D000002010B582B000240094214B5A6C00
:1017180042F480425A645A6C02F480420092009A61
:1017280001941A6C42F080521A641B6C03F08053C7
:101738000193019B0720FEF733FF224621466FF0F5
:101748000B00FEF73FFF224621466FF00A00FEF726
:1017580039FF224621466FF00900FEF733FF224683
:1017680021466FF00400FEF72DFF224621466FF058
:101778000300FEF727FF224621466FF00100FEF71F
:1017880021FF224621464FF0FF30FEF71BFF02B033
:1017980010BD00BF003802407047FEE7FEE7FEE7D5
:1017A800FEE770477047704708B5FEF7E7FEFEF79B
:1017B80064FF08BD08B50120FFF74CF808BD08B55F
:1017C8000220FFF747F808BD08B51020FFF742F8D8
:1017D80008BD08B52020FFF73DF808BD08B500F0A2
:1017E8006FF80B4BDB6800F04DF848B100F04AF891
:1017F80001280AD1064BD868C0B200F055F804E0B9
:10180800034BD868C0B200F049F800F033F808BDBF
:10181800003001407047000008B50248FFF7BAFBE6
:1018280008BD00BF800000200F49D1F8883043F47C
:101838007003C1F888300D4B1A6842F001021A6033
:10184800002098601A6822F0847222F480321A60AC
:10185800074A5A601A6822F480221A60D8604FF04A
:1018680000638B60704700BF00ED00E00038024065
:1018780010300024024A138801331380704700BFD8
:1018880074000020014B1888704700BF74000020C6
:10189800014B00221A80704774000020014B187118
:1018A800704700BF74000020014B5871704700BF9B
:1018B80074000020014B1879704700BF74000020A5
:1018C800014B01229A71704774000020014B0022DD
:1018D8009A71704774000020014B9879704700BFD7
:1018E80074000020064B04221A70064B07221A7057
:1018F800054B5A221A70054BA5221A70704700BF73
:10190800CC000020C0000020C8000020D00000202B
:10191800024A136843F040031360704700300140E7
:10192800704700002DE9F04192B0254B5A6C42F403
:1019380080525A645B6C03F480530193019BD0235B
:1019480002934FF00208CDF80C800125049500247D
:10195800059406950527079702A91A48FFF7B2FBD1
:1019680008260296CDF80C800495059406940797EE
:101978000DEB06011448FFF7A5FB144BDB68144B6D
:1019880083F823435E60089409940A940B940C949A
:101998000D940F9410940F2311930E4C08A9204610
:1019A800FFF729FC636823F0100363600A4B1B7878
:1019B800E360636843F04003636012B0BDE8F08100
:1019C80000380240000002400004024000ED00E040
:1019D80000E100E000300140CC00002010B586B0E6
:1019E800094C012202212046FEF72DFF0223019314
:1019F8000122029203930323049301A92046FEF7D0
:101A080053FE06B010BD00BF00080240DFF834D016
:101A1800002103E00C4B5B58435004310B480C4B3E
:101A280042189A42F6D30B4A02E0002342F8043BDC
:101A3800094B9A42F9D3FFF7F7FE00F011F8FFF7C8
:101A4800D1FD704700800020001B00080000002026
:101A58001000002010000020D4000020FEE7000045
:101A680070B50D4E0D4CA41BA4100025A54209D13C
:101A78000B4E0C4C00F018F8A41BA4100025A5422E
:101A880005D170BD56F8253098470135EEE756F870
:101A9800253098470135F2E7F81A0008F81A0008C7
:101AA800F81A0008FC1A0008F8B500BFF8BC08BC12
:101AB8009E467047F8B500BFF8BC08BC9E46704704
:101AC80000000000000000000102030406070809E6
:101AD80000000000010203042E2E2F5372632F69A9
:081AE8006E69742E630000001A
:081AF00048E7FF7F0100000040
:041AF800ED010008F4
:041AFC00C901000814
:101B00000100000010000000010000000024F400AB
:0400000508001A15C0
:00000001FF
