:020000040800F2
:10000000008000206D220008312100083321000803
:1000100035210008372100083921000800000000C0
:100020000000000000000000000000003B2100086C
:100030003D210008000000003F2100084121000888
:10004000BD220008BD220008BD220008BD22000814
:10005000BD220008BD2200084D21000857210008DC
:10006000BD220008BD22000861210008BD22000851
:10007000BD220008BD220008BD220008BD220008E4
:10008000BD220008BD220008BD22000800000000BB
:100090000000000000000000000000006B210008CC
:1000A000BD220008BD220008BD220008BD220008B4
:1000B000000000000000000000000000BD22000859
:1000C000BD220008BD220008BD22000875210008DD
:1000D0008521000895210008BD22000800000000CD
:1000E000BD220008BD220008000000000000000042
:1000F000000000000000000000000000BD22000819
:100100000000000000000000BD2200080000000008
:100110000000000000000000BD22000800000000F8
:10012000BD220008BD220008BD220008BD22000833
:10013000BD220008000000000000000000000000D8
:1001400000000000000000000000000000000000AF
:10015000BD220008BD220008BD220008BD22000803
:10016000000000000000000000000000000000008F
:10017000000000000000000000000000000000007F
:10018000BD220008BD2200080000000000000000A1
:1001900000000000BD220008000000000000000078
:1001A000000000000000000000000000000000004F
:1001B000000000000000000000000000BD22000858
:0801C000BD220008BD22000869
:1001C80010B5054C237833B9044B13B10448AFF389
:1001D80000800123237010BD0C00002000000000E7
:1001E8002023000808B5034B1BB103490348AFF3AC
:1001F800008008BD00000000100000202023000837
:1002080053B94AB9002908BF00281CBF4FF0FF3175
:100218004FF0FF3000F072B9ADF1080C6DE904CE73
:1002280000F006F8DDF804E0DDE9022304B07047C9
:100238002DE9F047089E04468846002B4BD18A4298
:10024800154667D9B2FA82F24AB1C2F1200701FA1B
:1002580002F320FA07F7954047EA030894404FEA6B
:10026800154E230CB8FBFEF71FFA85FC0EFB17880A
:1002780043EA084307FB0CF1994209D9EB1807F147
:10028800FF3080F01B81994240F21881023F2B44D5
:100298005B1AA4B2B3FBFEF00EFB103344EA03442E
:1002A80000FB0CFCA44509D92C1900F1FF3380F0A0
:1002B8000781A44540F2048102382C4440EA0740F3
:1002C800A4EB0C0400271EB1D4400023C6E9004368
:1002D8003946BDE8F0878B4209D9002E00F0EB8043
:1002E8000027C6E9000138463946BDE8F087B3FA69
:1002F80083F7002F47D18B4202D3824200F2FA8063
:10030800841A61EB030301209846002EE0D0C6E969
:100318000048DDE702B9FFDEB2FA82F2002A40F0B7
:100328008F80491B4FEA154E1FFA85F80127B1FB4C
:10033800FEFC230C0EFB1C1143EA014308FB0CF1E5
:10034800994207D9EB180CF1FF3002D2994200F21A
:10035800CD808446591AA3B2B1FBFEF00EFB1014EF
:1003680043EA044408FB00F8A04507D92C1900F11A
:10037800FF3302D2A04500F2B6801846A4EB080469
:1003880040EA0C409FE7C7F1200CBB4022FA0CFE64
:100398004EEA030E01FA07F420FA0CF521FA0CF3E1
:1003A8004FEA1E482543B3FBF8F92C0C08FB193318
:1003B8001FFA8EFA44EA034309FB0AF49C4202FA44
:1003C80007F200FA07F10BD91EEB030309F1FF301E
:1003D80080F087809C4240F28480A9F1020973442E
:1003E8001B1BADB2B3FBF8F008FB103345EA03441E
:1003F80000FB0AFAA24508D91EEB040400F1FF33FA
:100408006BD2A24569D90238744440EA0940A0FB7E
:100418000289A4EB0A044C45C2464B4654D351D03A
:10042800002E69D0B1EB0A0564EB030404FA0CFC56
:10043800FD40FC404CEA0505C6E90054002747E7A3
:10044800C2F1200320FA03F7954001FA02F021FADD
:1004580003F34FEA154E3843010CB3FBFEF71FFABE
:1004680085F80EFB173341EA034107FB08F38B427B
:1004780004FA02F407D9691807F1FF3C2FD28B421E
:100488002DD9023F2944CB1A81B2B3FBFEF00EFBF3
:10049800103341EA034100FB08F38B4207D969187E
:1004A80000F1FF3C17D28B4215D902382944C91AEA
:1004B80040EA07473BE73746304609E70746E7E69D
:1004C8001846FBE64145ABD2B8EB020A69EB0E02CF
:1004D80001381346A4E76046E9E7184695E76746FA
:1004E800D1E781467CE702382C4447E7ACF1020C9F
:1004F8002B442FE7384608E73746E9E6704700BF40
:1005080010B504460E4B18784FF47A73B3FBF0F32A
:100518000C4A1068B0FBF3F000F094F868B90F2C9F
:1005280001D901200AE0002221464FF0FF3000F0F7
:1005380049F8034B5C60002000E0012010BD00BFBB
:10054800000000200800002008B50B4B1A6842F490
:1005580000721A601A6842F480621A601A6842F4DB
:1005680080721A60032000F01BF80020FFF7C8FF14
:1005780001F0FAFC002008BD003C0240034A116863
:10058800034B1B780B441360704700BF88020020A0
:1005980000000020014B1868704700BF8802002047
:1005A800074AD36823F4E0631B041B0C000200F421
:1005B800E060184340F0BF6040F40030D0607047FE
:1005C80000ED00E030B4174BDB68C3F30223C3F13E
:1005D8000704042C28BF04241D1D062D18D9033B2D
:1005E8004FF0FF3505FA04F421EA0401994005FAB1
:1005F80003F322EA0303194300280BDB0901C9B2FC
:1006080000F1604000F5614080F8001330BC70478D
:100618000023E5E700F00F000901C9B2024B1954A5
:10062800F4E700BF00ED00E014ED00E000F01F0269
:10063800400901239340024A42F82030704700BF26
:1006480000E100E00138B0F1807F0AD2064B586023
:10065800064AF02182F823100020986007221A60C9
:1006680070470120704700BF10E000E000ED00E097
:10067800042805D0054A136823F004031360704763
:10068800024A136843F004031360704710E000E067
:10069800704708B5FFF7FCFF08BD90F83530DBB2AE
:1006A800022B03D08023436501207047052380F87F
:1006B80035300268136823F0010313600020704787
:1006C80000230F2B00F2BA80F0B482B074E0846883
:1006D80006EA040CCC68BC4044EA0C048460446814
:1006E80024EA02024C68C4F300149C40144344609A
:1006F800C26816408A68BA403243C2604A6812F03B
:10070800805F56D0002201924D4A546C44F48044D4
:100718005464526C02F480420192019A9C08A61C0F
:10072800484A52F8267003F0030296000F22B2409E
:1007380027EA0207444A904279D002F58062904243
:1007480077D002F5806290426FD00722B2403A43D8
:1007580002343C4E46F824203C4A1468EA4302EA34
:1007680004064F6817F4803F01D045EA0406374C69
:100778002660646802EA04064F6817F4003F01D057
:1007880045EA0406314C6660A46802EA04064F682C
:1007980017F4801F01D045EA04062C4CA660E468D3
:1007A80022404E6816F4001F01D045EA0402274C87
:1007B800E26001330F2B3ED801229A400C6804EA0C
:1007C8000205AA42F5D14C68022C01D0122C10D196
:1007D800DE08083650F826C003F00704A7000F24E7
:1007E800BC402CEA040C0C69BC4044EA0C0440F8F8
:1007F800264004685F000326BE40F64306EA040C60
:100808004C6804F00304BC4044EA0C0404604C68DF
:1008180004F1FF3CBCF1010F7FF659AF112C3FF4F6
:1008280056AF122C7FF464AF51E702228EE7002204
:100838008CE701228AE702B0F0BC7047704700BF1E
:10084800003802400038014000000240003C0140EE
:1008580012B90904816170478161704770470000CF
:1008680008B5054B5B69034200D108BD024B5861CE
:10087800FFF7F4FFF9E700BF003C0140324B9B68EB
:1008880003F00C03042B5CD0082B01D02F487047D1
:100898002DE9F04B2C4B5A6802F03F025B6813F4C9
:1008A800800F2BD0284B5B68C3F388131E460027A4
:1008B8005C010025E41A65EB0705A90141EA94618A
:1008C800A001001B61EB0501CB0043EA5073C40093
:1008D800A01943EB07014B0243EAD05344022046D8
:1008E80019460023FFF78CFC174B5B68C3F30143E1
:1008F80001335B00B0FBF3F0BDE8F08B124B5B6893
:10090800C3F388131E4600275C010025E41A65EB33
:100918000705A90141EA9461A001001B61EB0501EB
:10092800CB0043EA5073C400A01943EB07018B02C4
:1009380043EA90538402204619460023FFF760FCDF
:10094800D2E70348704700BF003802400024F40093
:1009580000127A00002800F09D8070B504464F4BC5
:100968001B6803F00F038B4209D2CBB24B4A1370BA
:10097800136803F00F038B4201D0012070BD236878
:1009880013F0020F17D013F0040F04D0444A9368F1
:1009980043F4E0539360236813F0080F04D0404AEF
:1009A800936843F4604393603D4A936823F0F003EF
:1009B800A068034393600D46236813F0010F32D0FB
:1009C8006368012B21D09A1E012A25D9344A12685E
:1009D80012F0020F60D032498A6822F003021343F2
:1009E8008B60FFF7D7FD06462D4B9B6803F00C0381
:1009F8006268B3EB820F16D0FFF7CCFD801B41F283
:100A080088339842F0D90320B8E7254A126812F4CF
:100A1800003FE0D10120B1E7214A126812F0007FBF
:100A2800D9D10120AAE71D4B1B6803F00F03AB4285
:100A380009D9EAB2194B1A701B6803F00F03AB42CD
:100A480001D001209AE7236813F0040F06D0144A56
:100A5800936823F4E053E1680B439360236813F031
:100A6800080F07D00E4A936823F46043216943EACC
:100A7800C1039360FFF702FF094B9B68C3F303139D
:100A8800084AD35CD840084B18600020FFF738FDAF
:100A9800002073E70120704701206FE7003C024007
:100AA800003802403823000808000020014B18686D
:100AB800704700BF0800002008B5FFF7F7FF044B98
:100AC8009B68C3F38223034AD35CD84008BD00BFA8
:100AD800003802404823000808B5FFF7E7FF044B39
:100AE8009B68C3F34233034AD35CD84008BD00BFB8
:100AF800003802404823000870B582B004460368F5
:100B080013F0010F3BD0A74B9B6803F00C03042B99
:100B18002CD0A44B9B6803F00C03082B21D06368EE
:100B2800B3F5803F4FD0B3F5A02F52D09D4B1A6834
:100B380022F480321A601A6822F480221A606368EC
:100B4800002B50D0FFF726FD0546964B1B6813F483
:100B5800003F14D1FFF71EFD401B6428F5D9032080
:100B68008AE1904B5B6813F4800FD8D08D4B1B68DB
:100B780013F4003F03D06368002B00F07A812368E8
:100B880013F0020F55D0874B9B6813F00C0F3ED023
:100B9800844B9B6803F00C03082B33D0E368002BCD
:100BA80068D0814B01221A60FFF7F4FC05467D4BA3
:100BB8001B6813F0020F54D1FFF7ECFC401B02280E
:100BC800F5D9032058E1774A136843F4803313605A
:100BD800B5E7744B1A6842F480221A601A6842F426
:100BE80080321A60ABE7FFF7D5FC05466D4B1B68F2
:100BF80013F4003FC3D0FFF7CDFC401B6428F5D9A0
:100C0800032039E1674B5B6813F4800FC6D1654B4D
:100C18001B6813F0020F04D0E368012B01D00120F8
:100C28002AE1604A136823F0F803216943EAC10303
:100C38001360236813F0080F40D0636963B35B4BFC
:100C480001221A60FFF7A6FC0546564B5B6F13F0AE
:100C5800020F33D1FFF79EFC401B0228F5D9032071
:100C68000AE1504A136823F0F803216943EAC103F3
:100C78001360DEE74C4B00221A60FFF78BFC054639
:100C8800484B1B6813F0020FD3D0FFF783FC401BBF
:100C98000228F5D90320EFE0444B00221A60FFF741
:100CA80079FC05463F4B5B6F13F0020F06D0FFF748
:100CB80071FC401B0228F5D90320DDE0236813F0FE
:100CC800040F78D0374B1B6C13F0805F33D10023AF
:100CD8000193344B1A6C42F080521A641B6C03F077
:100CE80080530193019B0125314B1B6813F4807FCE
:100CF80023D0A368012B34D0052B38D0294B1A6F89
:100D080022F001021A671A6F22F004021A67A36818
:100D1800002B36D0FFF73EFC0646224B1B6F13F024
:100D2800020F47D1FFF736FC801B41F28833984207
:100D3800F3D90320A0E00025D6E71D4A136843F441
:100D480080731360FFF726FC0646194B1B6813F4E3
:100D5800807FCED1FFF71EFC801B0228F5D9032027
:100D68008AE0104A136F43F001031367CFE70D4B76
:100D78001A6F42F004021A671A6F42F001021A67EA
:100D8800C5E7FFF707FC0646064B1B6F13F0020F7B
:100D980010D0FFF7FFFB801B41F288339842F3D94C
:100DA800032069E00038024000004742800E4742B5
:100DB80000700040E5B9A369002B5CD0304A926806
:100DC80002F00C02082A59D0022B17D02D4B002212
:100DD8001A60FFF7DFFB0446294B1B6813F0007FFE
:100DE80045D0FFF7D7FB001B0228F5D9032043E0C5
:100DF800234A136C23F080531364DCE7214B002251
:100E08001A60FFF7C7FB05461D4B1B6813F0007FF0
:100E180006D0FFF7BFFB401B0228F5D903202BE0C3
:100E2800E369226A1343626A43EA8213A26A520898
:100E3800013A43EA0243E26A43EA0263226B43EA65
:100E480002730F4A53600F4B01221A60FFF7A2FB8F
:100E580004460B4B1B6813F0007F06D1FFF79AFB83
:100E6800001B0228F5D9032006E0002004E000203A
:100E780002E0012000E0002002B070BD0120FBE785
:100E88000038024060004742F8B505460F4616464E
:100E98001C463BE02CB1FFF77DFB069BC01AA04225
:100EA80034D32A68536823F0E00353606B68B3F5C2
:100EB800827F0BD0AB6AB3F5005F14D0012385F8AD
:100EC8005130002385F85030032027E0AB68B3F594
:100ED800004F02D0B3F5806FECD12A68136823F075
:100EE80040031360E6E72A68136823F400531B04E1
:100EF8001B0C13602A68136843F400531360DDE782
:100F08000123B34209D0B4F1FF3FC3D12B689B68DA
:100F180037EA0303F4D00023F3E70020F8BD10B547
:100F280082B0044600920B4600228021FFF7ACFFF6
:100F3800034610B9184602B010BD636D43F0200394
:100F480063650323F6E700283BD010B50446002369
:100F5800836290F85130002B2ED0022384F8513050
:100F68002268136823F0400313606368A268134380
:100F7800E26813432269134362691343A26902F4C6
:100F880000721343E2691343226A1343A16A226879
:100F98000B431360638B03F00403616A22680B43FD
:100FA80053602268D36923F40063D361002060652D
:100FB800012384F8513010BD80F8503001F01EF83C
:100FC800CBE7012070472DE9F04385B099460C9D89
:100FD80090F85030012B00F0108104460F46164659
:100FE800012380F85030FFF7D5FA804694F8513045
:100FF800DBB26268012B15D0B2F5827F0AD00223DA
:10100800012284F85120002284F85020184605B0A7
:10101800BDE8F083A268002A40F0E780042B01D0E5
:101028000223EDE7002F00F0E280002E00F0E180BF
:10103800B9F1000F00F0DF8094F85130DBB2012BDA
:101048002BD000236365A663A4F83E90A4F83C90D7
:101058002763A4F83690A4F8349023646364236863
:101068001A6812F0400F03D11A6842F040021A6061
:10107800E368B3F5006F14D063681BB1E38E9BB2CD
:10108800012B07D1236817F8012B1A73E38E013B54
:101098009BB2E3864FF0010961E0052384F85130E3
:1010A800CFE763681BB1E38E9BB2012B07D123689E
:1010B80037F8022BDA60E38E013B9BB2E3864FF0F0
:1010C800010913E0E38F9BB26BB123689A6812F0B1
:1010D800010F08D0DB6826F8023BE38F013B9BB287
:1010E800E3874FF00109B5F1FF3F1CD1E38E9BB2B6
:1010F8001BB9E38F9BB2002B55D0B9F1000FE1D09B
:10110800E38E9BB2002BDDD023689A6812F0020FA1
:10111800D8D037F8022BDA60E38E013B9BB2E38626
:101128004FF00009CEE7FFF735FAA0EB0800A84218
:10113800DCD3032364E7E38F9BB26BB123689A681F
:1011480012F0010F08D0DB683370E38F013B9BB2CC
:10115800E38701364FF00109B5F1FF3F1BD1E38E5C
:101168009BB213B9E38F9BB2EBB1B9F1000FE2D098
:10117800E38E9BB2002BDED023689A6812F0020F30
:10118800D9D03A781A73E38E013B9BB2E3860137D4
:101198004FF00009CFE7FFF7FDF9A0EB0800A842E0
:1011A800DDD303232CE7CDF800802B460122022152
:1011B8002046FFF769FE08B1032321E74246294686
:1011C8002046FFF7ACFE034618B1202363650123D0
:1011D80016E7A268002A7FF413AF03922268D16849
:1011E800039192680392039A0AE7022308E701230E
:1011F80006E7012304E7012302E7022306E72DE9B6
:10120800F04182B004460D4617461E464368B3F5C2
:10121800827F19D094F85030012B00F0A28001236E
:1012280084F85030FFF7B6F9804694F85130DBB2B5
:10123800012B15D00220012384F85130002384F8B3
:10124800503002B0BDE8F0818368002BE2D104235E
:1012580080F85130009613460A46FFF7B4FEF0E7CF
:10126800002D74D0002F74D0042384F8513000234B
:101278006365A563A787E7872363A386E38623645B
:101288006364A368B3F5004F0BD023681A6812F0A3
:10129800400F03D11A6842F040021A60E3685BB15C
:1012A80028E02268136823F480431360EDE7002EDA
:1012B80051D0B6F1FF3F10D1E38F9BB2002B31D054
:1012C80023689A6812F0010FF1D01B7B05F8013BE7
:1012D800E38F013B9BB2E387EEE7FFF75BF9A0EBF7
:1012E8000800B042E8D30320A5E7002E35D0B6F1B8
:1012F800FF3F0FD1E38F9BB2A3B123689A6812F026
:10130800010FF2D0DB6825F8023BE38F013B9BB26B
:10131800E387EFE7FFF73EF9A0EB0800B042E9D317
:10132800032088E76368B3F5827F03D0636DB3B9A0
:10133800002080E7A368B3F5004F02D0B3F5806FB3
:10134800F4D12268136823F040031360EEE701200C
:1013580071E701206FE703206DE703206BE70120A9
:1013680069E702206DE7704710B584B0044602684B
:101378005068936803F0410101290AD013F0020F65
:101388000ED010F0800F0BD0636C2046984704B045
:1013980010BD10F0400FF1D0236C20469847F6E7B7
:1013A80013F4B07FF3D010F0200FF0D013F0400FFB
:1013B8000FD094F85110C9B203294AD0616D41F099
:1013C8000401616500210091D16800919168009144
:1013D800009913F0200F0CD0616D41F00101616597
:1013E8000021029191680291116821F04001116079
:1013F800029A13F4807F09D0636D43F00803636594
:101408000023039323689B680393039B636D002B5E
:10141800BDD02268536823F0E0035360012384F8A9
:10142800513010F0030F1CD02268536823F00303D7
:101438005360E36C23B10D4A1A65E06CFFF72DF990
:10144800A36C002BA3D0094A1A65A06CFFF725F9F5
:101458009DE700230193D368019393680193019B4F
:1014680095E72046FFF77FFF91E700BF7914000852
:1014780008B5806B0023C387C386FFF774FF08BDD8
:101488000268D36823F49073D3600268536923F029
:1014980001035361202380F83A30704790F83930BF
:1014A800DBB2212B2AD18368B3F5805F16D0036A9B
:1014B8005A1C02621A7803685A60C38C013B9BB2BB
:1014C800C384EBB90268D36823F08003D360026851
:1014D800D36843F04003D36000207047036A1B8839
:1014E8000268C3F30803536003691BB9036A023334
:1014F8000362E2E7036A01330362DEE70220704712
:10150800002070472DE9F843044601680A6922F46F
:101518004052C36813430B610168CA6822F416423B
:1015280022F00C0283680069034360690343E069A1
:1015380003431343CB6021684A6922F44072A369CC
:1015480013434B61E369B3F5004F60D02368B84A91
:10155800934200F0148102F58062934200F00F81FB
:10156800FFF7AAFA00EB800000EB80006568AD0089
:10157800B0FBF5F5AF4FA7FB05356D092E01FFF759
:101588009BFA00EB800000EB80006568AD00B0FBC3
:10159800F5F9FFF791FA00EB800000EB8000656831
:1015A800AD00B0FBF5F5A7FB05356D094FF06408F4
:1015B80008FB15952D013235A7FB05356D0905F09A
:1015C800F0053544FFF778FA00EB800000EB800067
:1015D8006668B600B0FBF6F6FFF76EFA00EB80001F
:1015E80000EB800063689B00B0FBF3F0A7FB0030C2
:1015F800400908FB10684FEA081808F13208A7FBF1
:101608000837C7F3431723682F449F600DE1236809
:10161800874A93425BD002F58062934257D0FFF726
:101628004BFA00EB800000EB800065686D00B0FBB2
:10163800F5F5804FA7FB05356D092E01FFF73CFA3C
:1016480000EB800000EB800065686D00B0FBF5F9E9
:10165800FFF732FA00EB800000EB800065686D0050
:10166800B0FBF5F5A7FB05356D094FF0640808FBDD
:101678001595ED003235A7FB05356D096D0005F4AC
:10168800F8753544FFF718FA00EB800000EB80008E
:1016980066687600B0FBF6F6FFF70EFA00EB8000FE
:1016A80000EB800063685B00B0FBF3F3A7FB032348
:1016B8005B0908FB13684FEAC80808F13208A7FB62
:1016C8000837C7F3421723682F449F60ADE0FFF740
:1016D80003FA00EB800000EB800065686D00B0FB4A
:1016E800F5F5544FA7FB05356D092E01FFF7F4F901
:1016F80000EB800000EB800065686D00B0FBF5F939
:10170800FFF7EAF900EB800000EB800065686D00E8
:10171800B0FBF5F5A7FB05356D094FF0640808FB2C
:101728001595ED003235A7FB05356D096D0005F4FB
:10173800F8753544FFF7D0F900EB800000EB800026
:1017480066687600B0FBF6F6FFF7C6F900EB800096
:1017580000EB800063685B00B0FBF3F3A7FB032397
:101768005B0908FB13684FEAC80808F13208A7FBB1
:101778000837C7F3421723682F449F6055E0FFF7E7
:10178800ABF900EB800000EB80006568AD00B0FBB2
:10179800F5F5284FA7FB05356D092E01FFF79CF9D4
:1017A80000EB800000EB80006568AD00B0FBF5F948
:1017B800FFF792F900EB800000EB80006568AD0050
:1017C800B0FBF5F5A7FB05356D094FF0640808FB7C
:1017D80015952D013235A7FB05356D0905F0F00586
:1017E8003544FFF779F900EB800000EB800066686C
:1017F800B600B0FBF6F6FFF76FF900EB800000EBE0
:10180800800063689B00B0FBF3F0A7FB0030400941
:1018180008FB10684FEA081808F13208A7FB0837D8
:10182800C7F3431723682F449F60BDE8F88300BFC0
:10183800001001401F85EB5158B310B5044690F8CD
:1018480039300BB3242384F839302268D36823F461
:101858000053D3602046FFF755FE2268136923F42E
:10186800904313612268536923F02A035361226865
:10187800D36843F40053D3600020E063202384F846
:10188800393084F83A3010BD80F8383000F01AFC4E
:10189800D8E70120704790F83A30DBB2202B1BD1F3
:1018A800E1B1EAB190F83830012B1BD08162828512
:1018B800C2850023C363222280F83A2080F838309A
:1018C80001684A6942F001024A610168CA6842F443
:1018D8009072CA601846704702207047012070470E
:1018E8000120704702207047704708B50168CB682F
:1018F80023F04003CB60202380F83930FFF7F4FF52
:10190800002008BD08B590F83A30DBB2222B40D150
:101918008368B3F5805F0ED0036903BB03685A6818
:10192800836A591C81621A70C38D013B9BB2C385BF
:10193800F3B100202EE0826A036943B903685B684B
:10194800C3F308031380836A02338362ECE70368F6
:101958005B68DBB21380836A01338362E4E7036860
:101968005B68826A511C816203F07F031370DBE7B6
:101978000268D36823F49073D3600268536923F034
:1019880001035361202380F83A3000F091F90020D8
:1019980000E0022008BD704710B5044602681368CD
:1019A800D168526913F00F0005D113F0200F02D04F
:1019B80011F0200F53D1002867D012F0010202D194
:1019C80011F4907F61D013F0010F06D011F4807FDD
:1019D80003D0E06B40F00100E06313F0040F04D083
:1019E8001AB1E06B40F00200E06313F0020F04D07C
:1019F8001AB1E06B40F00400E06313F0080F04D064
:101A08001AB1E26B42F00802E263E26B002A48D0A6
:101A180013F0200F02D011F0200F24D123685B6946
:101A280003F04003E26B12F0080F00D13BB32046ED
:101A3800FFF726FD23685A6912F0400F1BD05A6938
:101A480022F040025A61636B8BB11A4A1A65606BC7
:101A5800FEF723FE28B3606B036D984721E020460C
:101A6800FFF750FF1DE02046FFF74CFFD6E7204662
:101A7800FFF791FF15E02046FFF78DFF11E02046A4
:101A8800FFF789FF0023E3630BE013F0800F02D018
:101A980011F0800F06D113F0400F02D011F0400F63
:101AA80004D110BD2046FFF7F9FCFAE72046FFF7FE
:101AB8001CFFF6E7C11A000808B5806B0023C38530
:101AC800C384FFF768FF08BD024B00225A701A70E2
:101AD800704700BF28000020074B18785B78013357
:101AE8005A4203F0070302F0070258BF53429842D4
:101AF80014BF0020012070472800002070B506465A
:101B0800114B5C78FFF7E8FF50B10F490B780133B0
:101B18005A4203F0070302F0070258BF53420B7002
:101B2800094D04EB44135800284442223146023040
:101B380000F0E6FB0134634204F0070403F00703F6
:101B480058BF5C426C7070BD28000020074A002313
:101B5800137082F8413005E0044A1A44002151709C
:101B68000133DBB23F2BF7D9704700BF3C0200209E
:101B7800004870473C020020044B93F84220511C57
:101B880083F8421013445870704700BF3C0200208D
:101B9800014B1870704700BF3C020020014B83F8CE
:101BA800410070473C020020024B002283F842208B
:101BB800704700BF3C020020014B83F84300704788
:101BC8003C020020014B93F8430070473C02002080
:101BD80008B5FFF7BBFFFFF7E7FF0020FFF7ECFFB3
:101BE80008BD00000023194605E0064A1A44527849
:101BF80011440133DBB23F2BF7D9C9B2C843C0B295
:101C0800704700BF3C02002038B50446214B93F8CA
:101C180044302BB1012B0DD0FFF7DAFF002008E08C
:101C28001C4D85F84500FFF7B3FF012385F84430C4
:101C3800002038BD174B93F8462093F845309A4258
:101C480003D39A420BD00020F3E7FFF795FF114A20
:101C580092F84630013382F846300020E9E7FFF772
:101C6800C1FFA0420AD0FFF7B3FF0020094B83F859
:101C78004400084B002283F84620DAE7054B00228F
:101C880083F844202046FFF789FF0120FFF794FFDF
:101C98000120EEE73C02002008B501220249034872
:101CA800FFF7F9FD08BD00BF830200208C02002069
:101CB80008B50268084B9A4200D008BDFFF782FFBA
:101CC80028B1012205490648FFF7E5FDF5E7034B72
:101CD8001878FFF799FFF4E700100140830200200D
:101CE8008C0200202DE9F0438BB000240194474B6F
:101CF8001A6B42F004021A631A6B02F00402019292
:101D0800019A02941A6B42F080021A631A6B02F06D
:101D180080020292029A03941A6B42F001021A633B
:101D28001A6B02F001020392039A04941A6B42F0B0
:101D380002021A631B6B03F002030493049B344DE5
:101D480001224FF4C0412846FEF782FD22464FF497
:101D5800C0512846FEF77CFDDFF8B88022464FF4D4
:101D680000614046FEF774FD4FF4C0430593012619
:101D780006960796089405A92846FEF7A1FC0423B1
:101D880005930694079405A94046FEF799FC4FF47D
:101D9800007305930694079605A92846FEF790FC5C
:101DA8004FF48073059306940794DFF86C9005A9A7
:101DB8004846FEF785FC4FF4004305930694022736
:101DC800079705A94846FEF77BFC4FF48063059307
:101DD8000694079705A92846FEF772FC4FF4C053EE
:101DE800059306960797089405A92846FEF768FC08
:101DF8004FF40063059306960797089405A9404693
:101E0800FEF75EFC0BB0BDE8F08300BF003802406F
:101E1800000802400004024000000240FEE7000003
:101E280000B595B000230093244A116C41F080510D
:101E38001164126C02F080520092009A0193204AB9
:101E4800116841F440411160126802F44042019265
:101E5800019A012207924FF4803208920D9307A845
:101E6800FEF74AFE08BB0F230293012303930021C8
:101E780004914FF480530593069102A8FEF76AFD7A
:101E8800B8B9FEF713FE0F4BA3FB00308009FEF72D
:101E9800D9FB0420FEF7ECFB002211464FF0FF307F
:101EA800FEF790FB15B05DF804FB42210648FFF7EA
:101EB800B5FF50210448FFF7B1FF00BF00380240CA
:101EC80000700040D34D62105023000808B50B483D
:101ED8000B4B03604FF4E133436000238360C3601E
:101EE80003610C2242618361C361FFF7A5FC00B95D
:101EF80008BD6E210348FFF791FF00BF8C02002048
:101F0800001001405023000810B582B0FFF730FEE2
:101F18000446FEF719FBFFF783FFFFF7E3FEFFF721
:101F2800D5FF00F099F900F019F8FFF7B5FEFFF7B3
:101F3800CBFD07E04FF0FF3301220DF10701064802
:101F4800FFF75DF9FFF73EFE0128F3D12046FFF7C2
:101F5800D5FDFFF73DFEEDE724030020014B0022ED
:101F68001A7070478402002010B582B000240094D3
:101F7800214B5A6C42F480425A645A6C02F48042F3
:101F88000092009A01941A6C42F080521A641B6CF9
:101F980003F080530193019B0720FEF701FB2246C3
:101FA80021466FF00B00FEF70DFB224621466FF02D
:101FB8000A00FEF707FB224621466FF00900FEF7EC
:101FC80001FB224621466FF00400FEF7FBFA224689
:101FD80021466FF00300FEF7F5FA224621466FF01E
:101FE8000100FEF7EFFA224621464FF0FF30FEF7D8
:101FF800E9FA02B010BD00BF00380240F0B589B060
:1020080003682B4A934204D02A4A93422DD009B040
:10201800F0BD00240194284B5A6C42F480525A6453
:102028005B6C03F480530193019BD0230393022735
:1020380004970594032606960525079503A91F48C6
:10204800FEF73EFB0823039304970594069607952D
:1020580003A91B48FEF734FB224621462320FEF73E
:10206800B1FA2320FEF7E2FAD1E700240294124BDA
:102078001A6C42F480421A641B6C03F48043029386
:10208800029B4FF4604303930223049305940323B4
:1020980006930523079303A90948FEF711FB224677
:1020A80021462420FEF78EFA2420FEF7BFFAAEE779
:1020B8000030014000380040003802400000024073
:1020C800000402400268164B9A4200D0704710B5CF
:1020D80086B00024009403F594335A6C42F0100241
:1020E8005A645B6C03F010030093009B4FF4C063C9
:1020F80001930223029301230393032304930723E9
:10210800059301A90748FEF7DBFA22462146252058
:10211800FEF758FA2520FEF789FA06B010BD00BF71
:1021280000100140000002407047FEE7FEE7FEE7AE
:10213800FEE770477047704708B5FEF71FFAFEF7CD
:10214800A8FA08BD08B50120FEF78AFB08BD08B546
:102158000220FEF785FB08BD08B51020FEF780FBBE
:1021680008BD08B52020FEF77BFB08BD08B502486E
:10217800FFF7FAF808BD00BF2403002008B502489D
:10218800FFF7F2F808BD00BFCC02002008B50248EE
:10219800FFF702FC08BD00BF8C0200200F49D1F8F0
:1021A800883043F47003C1F888300D4B1A6842F048
:1021B80001021A60002098601A6822F0847222F4E2
:1021C80080321A60074A5A601A6822F480221A601C
:1021D800D8604FF000638B60704700BF00ED00E0EF
:1021E800003802401030002408B50D480D4B03603C
:1021F800002343608360C360036143614FF400724E
:1022080082610362436283620F23C362FEF79BFE0F
:1022180000B908BD50210448FFF700FEF9E700BFE8
:1022280024030020003001406023000800B587B077
:102238000848436903F00203436102230193012222
:10224800029203930323049301A9FEF739FA07B016
:102258005DF804FB0008024008B5FFF7C5FFFFF76B
:10226800E5FF08BDDFF834D0002103E00C4B5B58D4
:10227800435004310B480C4B42189A42F6D30B4A90
:1022880002E0002342F8043B094B9A42F9D3FFF7D6
:1022980085FF00F011F8FFF737FE70470080002037
:1022A80088230008000000200C0000200C000020FB
:1022B8007C030020FEE7000070B50D4E0D4CA41BFA
:1022C800A4100025A54209D10B4E0C4C00F024F8AF
:1022D800A41BA4100025A54205D170BD56F82530D1
:1022E80098470135EEE756F8253098470135F2E76B
:1022F8008023000880230008802300088423000826
:1023080010B5431E0A44914200D110BD11F8014B8B
:1023180003F8014FF7E70000F8B500BFF8BC08BCA8
:102328009E467047F8B500BFF8BC08BC9E4670478B
:10233800000000000000000001020304060708096D
:1023480000000000010203042E2E2F5372632F6930
:102358006E69742E630000002E2E2F5372632F4770
:10236800656E352F47656E355F696E69742E63003B
:08237800C0DEFF7F0100000040
:04238000ED01000863
:04238400C901000883
:0C23880001000000100000000024F40020
:040000050800226D60
:00000001FF
